:020000040000FA
:1000000000440020D1040000E1040000310400009D
:10001000E5040000E7040000E9040000000000001F
:10002000000000000000000000000000B504000017
:10003000ED0400000000000023030000F120000098
:10004000FD210000F5040000F7040000F9040000A1
:10005000FB040000FD040000FF0400000105000097
:100060000305000005050000070500000905000064
:100070000B0500000D0500000F0500001105000034
:100080001305000015050000170500001905000004
:100090001B0500001D0500001F05000021050000D4
:1000A00023050000250500002705000029050000A4
:1000B0002B0500002D0500002F0500003105000074
:1000C000330500003505000037050000B51C0000B1
:1000D000E91C0000211D0000591D0000C91D000081
:1000E000FD1D000045050000470500004905000012
:1000F0004B0500004D0500004F05000051050000B4
:100100005305000055050000570500005905000083
:100110005B0500005D0500005F0500006105000053
:100120006305000065050000670500006905000023
:100130006B0500006D0500006F05000071050000F3
:1001400073050000750500007705000079050000C3
:100150007B0500007D0500007F0500008105000093
:100160008305000085050000911D00008905000041
:100170008B0500008D0500008F0500009105000033
:100180009305000095050000970500009905000003
:100190009B0500009D0500009F050000A1050000D3
:1001A000A3050000A505000000F002F800F092F899
:1001B00014A696E8000CB244B344DA4501D100F02D
:1001C00089F8BAE80F000FA696E83000A5EB040501
:1001D00004EB0607AAEB0704A7F101074FEA151580
:1001E0004FEA3414A4F10104AC4201D300F072F8D8
:1001F00013F0010F18BFFB1A43F0010300F001F8E0
:10020000DBE718472CBA03006CBA03000A444FF02E
:10021000000C10F8013B13F0070408BF10F8014B65
:100220001D1108BF10F8015B641E05D010F8016BAA
:10023000641E01F8016BF9D113F0080F1EBF10F80E
:10024000014BAD1C0C1B09D16D1E58BF01F801CB31
:10025000FAD505E014F8016B01F8016B6D1EF9D5B4
:100260009142D6D370470000103A24BF78C878C1B5
:10027000FAD8520724BF30C830C144BF04680C60AC
:10028000704700007047000000230024002500266E
:10029000103A28BF78C1FBD8520728BF30C148BFE9
:1002A0000B607047642900F0DD81002070471FB5A6
:1002B00037F0A0FB00F0A2FB04000020002137F083
:1002C00083FB401C606000F0D7FD1FBD10B500F03F
:1002D0003CFE10BD00F093FE1146FFF7E8FF01F071
:1002E00067F900F0F7FF03B4FFF7F0FF03BC04F079
:1002F00073F80000EFF3108072B6704780F3108837
:1003000070475D4A1368012B04D04FF0010313605E
:100310005A4A10605A4A11605A484FF080510160A1
:100320007047EFF3108272B653480168002902D17A
:1003300082F31088704704B44FF0000101604F4809
:10034000016859B350490968A1B103B50846AFF334
:100350000080BDE80340724612F0400F0AD0EFF370
:100360000B83EFF31484EFF3098525E91E00006881
:10037000056013E0EFF309811EF0100F08BF21EDB7
:10038000108B21E9F00F404A12687346EFF30B849B
:10039000EFF3148521E93C000068016038490968E1
:1003A00009683CC984F30B8885F314889E46364E51
:1003B0003260104640B10AB4AFF300800ABC9E46DA
:1003C00013F0400F00D006E0B1E8F00F1EF0100F60
:1003D00008BFB1EC108B81F3098804BC82F310884C
:1003E000704727490860EFF3148222F0040282F379
:1003F000148822494FF0000008601F494FF00100A7
:10040000086022482249D0F8002041EA0201016038
:100410001C484FF0805101601E480068006880F35E
:10042000088861B662B6BFF34F8FBFF36F8F704716
:10043000EFF308801EF0040F01D0EFF3098020E9EC
:10044000F00F114A12687346EFF30B84EFF3148533
:1004500020E93C0040F804ED1EF0040F02D080F3C8
:10046000098801E080F3088800B52DF00FFB5DF8E6
:1004700004EB4EF0040E7047D02100203C200020F9
:100480004420002004ED00E0D821002020ED00E011
:100490000000FFFF08ED00E001DF704712B50C46D9
:1004A0000FCC24E90F002FF02DF8BDE812400860B2
:1004B00070477047EFF308811EF0040F01D0EFF38F
:1004C0000981886910F8020C0028F2D00128E5D0D3
:1004D0003848804738488047384880473848004780
:1004E000FEE7FEE7FEE7FEE7FEE7FEE7FEE7FEE7E4
:1004F000FEE7FEE7FEE7FEE7FEE7FEE7FEE7FEE7D4
:10050000FEE7FEE7FEE7FEE7FEE7FEE7FEE7FEE7C3
:10051000FEE7FEE7FEE7FEE7FEE7FEE7FEE7FEE7B3
:10052000FEE7FEE7FEE7FEE7FEE7FEE7FEE7FEE7A3
:10053000FEE7FEE7FEE7FEE7FEE7FEE7FEE7FEE793
:10054000FEE7FEE7FEE7FEE7FEE7FEE7FEE7FEE783
:10055000FEE7FEE7FEE7FEE7FEE7FEE7FEE7FEE773
:10056000FEE7FEE7FEE7FEE7FEE7FEE7FEE7FEE763
:10057000FEE7FEE7FEE7FEE7FEE7FEE7FEE7FEE753
:10058000FEE7FEE7FEE7FEE7FEE7FEE7FEE7FEE743
:10059000FEE7FEE7FEE7FEE7FEE7FEE7FEE7FEE733
:1005A000FEE7FEE7FEE7000006480749054A074B5D
:1005B00070470000A11C00005B5C0300495703006A
:1005C000A901000000240020004400200024002095
:1005D0007047000010B500F011FA001D10BD00BFFB
:1005E000E97303000FB4044910B503AA029800F0A0
:1005F00067FA10BC5DF814FB1C0A00202DE9F041DD
:100600000E460446002020622046E168884730B349
:10061000252805D0D4E901219047206A401CF2E743
:10062000E168204600278847050018D0A5F1410061
:10063000192802D820354FF4006732462946204653
:100640002760FFF72FFE40B1012804D0F61D26F0E9
:1006500007060836D8E7361DD6E72846DAE7206AC7
:10066000BDE8F0812DE9F0410646002410687529A7
:10067000314616A510D0AFF30080002802DA4042C0
:1006800013A507E031688A0701D512A502E04907E2
:1006900004D511A5012401E0AFF3008000210A2256
:1006A00006F1240709E0B0FBF2FCB0FBF2F302FB19
:1006B0001C00303078541846491C0028F3D12346DA
:1006C0002A463046BDE8F04100F0A0B90000000025
:1006D0002D0000002B0000002000000070B5064631
:1006E00000F090F90468054630460A22002100F027
:1006F00048FA2C6070BD2DE9F05F93460F468046A6
:100700000446002600F07EF9D0F80090824614F8E6
:10071000015B2DB1FFF75EFF0068405DC007F6D1B9
:100720002B2D02D02D2D1AD0641E0021CAF80010E6
:100730005A463946204600F0D5F9014627B13868B7
:10074000A04201D1C7F80080DAF80000022809D0E1
:10075000CAF80090700505D54842BDE8F09F46F400
:100760008066E2E70846F8E710B5044603E037F094
:100770001CF9401C09D014F8010B05490028F6D1DA
:10078000BDE810400A2037F010B94FF0FF3010BD1F
:100790001C0A0020401ECAB210F8011F8A4202D073
:1007A0000029F9D10020704740EA010310B59B07EA
:1007B0000FD1042A0DD310C808C9121F9C42F8D0CB
:1007C00020BA19BA884201D9012010BD4FF0FF307C
:1007D00010BD1AB1D30703D0521C07E0002010BD92
:1007E00010F8013B11F8014B1B1B07D110F8013B1E
:1007F00011F8014B1B1B01D1921EF1D1184610BDFF
:1008000040EA0103024630B59B0710D14FF0013496
:1008100000E008C208C91D1B9D4315EAC41FF8D09B
:1008200013F0FF0102F8011B0DD01B0AF8E711F8C5
:10083000013B002B02F8013B05D011F8013B002BD6
:1008400002F8013BF3D130BD10B5431C02E010F8B3
:10085000011B71B18107FAD14FF0013202C88C1A25
:100860008C4314EAC211F9D0C01A0A0603D0C01E84
:1008700010BDC01A10BD0A0401D0801E10BD0902AF
:10088000FCD0401E10BD40EA010370B59B072ED17D
:100890004FF00136042A2AD308C810C99D1B9D4376
:1008A000121F15EAC61517D0D8B2E1B2401A50EAA5
:1008B000056110D198B2A1B2401A50EA05410AD19F
:1008C00023F07F4024F07F41401A50EA052102D1F5
:1008D000180EA0EB146070BDA342DBD018BA21BA89
:1008E000884201D9012070BD4FF0FF3070BD0AB9B8
:1008F000002070BD10F8013B11F8014B63B1A34219
:100900000AD1521E08D010F8013B11F8014B1BB15F
:10091000A34201D1521EEDD1181B70BD10B5044683
:1009200010F0030F08BF11F0030F40F015804FF0D7
:10093000013E121FC0F20E8051F8043BA3EB0E0CD7
:100940002CEA030C1CEACE1C08BF40F8043BF0D094
:10095000A1F1040102F10402521E08DB11F8013B6F
:1009600000F8013B002BF7D1114600F042F9204678
:1009700010BD00000000000030B44FF0013C50F802
:10098000042B51F8043BCCFA52F4D51A20D1FCB90F
:1009900050F8042B51F8043BCCFA52F4D51A17D175
:1009A000B4B950F8042B51F8043BCCFA52F4D51AE0
:1009B0000ED16CB950F8042B51F8043BCCFA52F428
:1009C000D51A05D1002CDAD030BC4FF000007047AA
:1009D00029BAB1FA81F111F01801D1F12000844057
:1009E000F2D1CA40CB4012F0FF0213F0FF0330BC3B
:1009F000D01A70477047704770477047004870477B
:100A0000E40A002000487047C40A00202DE9F0479E
:100A10000D4699469246044600F12408016888066E
:100A200004D5E06921F01001216000E00120A84216
:100A300001DD471B00E00027A1697A1902EB0900DC
:100A4000081AA0612078C00602D42046AFF30080C7
:100A5000002608E0D4E901211AF806009047206A30
:100A6000401C761C20624E45F4DB2078C0060AD577
:100A70002046AFF3008006E0D4E901213020904702
:100A8000206A401C2062381EA7F10107F4DC07E051
:100A9000D4E9012118F805009047206A401C206223
:100AA000281EA5F10105F3DC2046AFF30080207875
:100AB000000602D50220BDE8F0870120FBE7000018
:100AC000074B70B50D467B4400F0BFF8044628463E
:100AD00000F0DCF810B14FF0FF3070BD204670BD63
:100AE000E16E03002DE9F05F824615468B46002734
:100AF0000AF10104B9460078302801D09DB113E015
:100B000014F8010B0127782803D0582801D045B1EB
:100B10000AE00DB1102D07D1002714F8010B1025A4
:100B200002E0082500E00A250026B0460EE005FB9D
:100B3000080005FB06F101271FFA80F801EB1046BB
:100B4000B6F5803F00D3B94614F8010B294600F0F2
:100B50008FF80028EBDABBF1000F05D00FB1641E4F
:100B600000E05446CBF80040B9F1000F06D0FFF783
:100B700049FF02210160C81EBDE8F09F48EA064017
:100B8000FAE72DE9F04791460F46804604460026D5
:100B900014F8015B2DB1FFF71DFD0068405DC00733
:100BA000F6D12B2D02D02D2D18D0641E4A46394681
:100BB0002046FFF797FF27B13968A14201D1C7F856
:100BC00000804FF0020471050BD54042002803DD80
:100BD000FFF718FF0460A007BDE8F08746F48066C1
:100BE000E4E70028F8DAFFF70DFF04606FF000403B
:100BF000F2E74FF000020429C0F0128010F0030C5D
:100C000000F0D881CCF1040CBCF1020F18BF00F841
:100C1000012BA8BF20F8022BA1EB0C0100F0CAB9F0
:100C20005FEAC17C24BF00F8012B00F8012B48BF0C
:100C300000F8012B7047000000487047C40A0020EC
:100C400001694A1C02610878704700B58FB0CDE990
:100C500001310021059105497944CDE90310114680
:100C60006846FFF7CBFC0FB000BD0000E5FFFFFFBB
:100C70003A2800D2303820F02002412A01D3A2F1D4
:100C80003700884201D34FF0FF307047007B00F0FF
:100C9000800070472DE9F05F054617460C46C8688E
:100CA00020F4201040F48000C860800602D5084679
:100CB00000F051FAE06841F282014FF0FF3A014042
:100CC000022903D0204600F0E3F9B9E000F4204106
:100CD000B1F5004F0FD1C00306D56168E06A8842C4
:100CE00000D80846606006E02069E06260606069E4
:100CF00003F014FCA061A0680022EEB200280DDA17
:100D0000E1688B050AD4C043A06041F490302260B2
:100D1000E0606068411C61600670AAE0E06891468E
:100D2000226040F40050E060206978BB606903F005
:100D300015FC04F124054FF00108A8B1A08910F4B6
:100D4000407F08D0E06928F0DEFE206118B1E0683D
:100D500040F4006017E0C4F81C802561E06820F4CE
:100D6000407040F480600EE0E06928F0CCFE00287E
:100D70002061F0D0E06840F4006010F4407FE06053
:100D800002D140F48070E06020696060E06825690D
:100D90006FF0010BC1051ED56168E06A884200D87A
:100DA0000846411B04D02246284600F07BF9E8BBE8
:100DB0001FB1E562C4E9015959E0681CE062606056
:100DC000E069401EA060E06840F48030E06030469A
:100DD0002E70BDE8F09F17B100F480320AE0606821
:100DE000411C61600670E0680A2E40F48030E060CB
:100DF00006D00022E16A6068814203D90B4602E016
:100E00000122F7E70346B4F80CC05B1B5FEA4C5CB9
:100E100004D4D4F81CC09C4500DD02B3814200D844
:100E20000146002BA1EB0008E56200E008E0C4E900
:100E3000015907DD22461946284600F033F908B16A
:100E40005046C6E7B8F1000F09D0A169E5626560B8
:100E5000A1EB0800A061E06840F01000E06047B13D
:100E60006168A069E562491B08446560A061584655
:100E7000AFE73046ADE7000010B54248542100F01E
:100E800097F84148542100F093F84048542100F06D
:100E90008FF83F493B483C4A3F4B08603D490A6058
:100EA0003A491960531C0365481C10650120086508
:100EB0003B48344A39A1784400F06EF920B93848EB
:100EC00078440A3800F00FFA37482F4A35A17844A1
:100ED00000F062F920B9344878440A3800F003FA87
:100EE00032482A4A2FA1784400F056F920B92F48F9
:100EF00078440A3800F0F7F940232248DC0000214A
:100F0000224600F0A1F820B125487844543800F07A
:100F1000EAF91D4822464023002100F095F820B14F
:100F200021487844543800F0DEF91848224610234E
:100F3000002100F089F8002806D01C487844BDE85C
:100F40001040563800F0CFB910BD104870B5006D94
:100F500020F001040B4800F097F90B4800F094F9D9
:100F60000A4800F091F909E0206D20F001052046C3
:100F700000F08AF9204609F0C8FE2C46002CF3D177
:100F800070BD0000C80900201C0A0020700A002063
:100F90000000002004000020080000207200000073
:100FA000886B030077000000766B0300516B030031
:100FB0004FF0000200B5134694469646203922BFF2
:100FC000A0E80C50A0E80C50B1F12001BFF4F7AF3D
:100FD000090728BFA0E80C5048BF0CC05DF804EB1F
:100FE000890028BF40F8042B08BF704748BF20F88D
:100FF000022B11F0804F18BF00F8012B7047754687
:10100000FFF71AFEAE4605006946534620F007007A
:10101000854618B020B5FFF7C7FABDE820404FF06D
:1010200000064FF000074FF000084FF0000BAC46F1
:10103000ACE8C009ACE8C009ACE8C009ACE8C0093C
:1010400021F007018D46704770B5C468A50713D01D
:10105000650211D4B2F5807F09D0B2F5007F06D0C9
:10106000B2F5806F08D1012300F1240106E05D1E76
:101070006FF07F46B54201D3012070BD0161C361AD
:10108000416024F470611143C160002070BD000014
:10109000C16821F4001141F08001C160002181602C
:1010A000016070472DE9F74F15460C464FF0FF3BA6
:1010B0003848D768D2F814A0074209D05046A96929
:1010C00003F092FA002819DB3248C0430740EF6072
:1010D0004FF000496FF000484C4501D3464600E010
:1010E000264600993B465046324603F09DFAA969D0
:1010F00020F00042B21A1144A96128B12846FFF736
:10110000C7FF5846BDE8FE8FA41BE5D10020F9E7D4
:1011100070B504460569C06A6168884200D808460F
:10112000E16821F42011E160C90312D5A84208D07A
:101130002246411B2846FFF7B5FF10B14FF0FF30A4
:1011400070BD0020E562C4E90150E06820F4803001
:10115000E060002070BD10B50446C06820F020009B
:10116000E060A16AA06988420DD02046FFF7D0FF59
:10117000E06820F4405040F01000E060A06AA061F8
:101180002069E062606044F24001E0688843E0600A
:1011900010BD0000100002002DE9F0410C4616467B
:1011A000070047D0104600F06FF82078611C6128D6
:1011B0000AD0722802D077283CD102E00125002411
:1011C00005E00225042402E0082448F2020511F893
:1011D000010B2B2806D0622809D011F8010C7428C5
:1011E0000AD00BE045F0030544F00204EFE745F0B8
:1011F000040544F00104EAE744F0100438462146AF
:1012000003F0B2F9411C15D00021316171604FF437
:101210000071F560F1617061200704D5304602224B
:10122000002100F067F8306D40F001003065304675
:10123000BDE8F0810020FBE72DE9F0410D460646B0
:10124000104C206DC10704D0410804D020F00104E7
:10125000F7E722460EE0542028F055FC07000ED098
:10126000206D47F001010843542120653846FFF7FF
:101270009FFE3A4629463046BDE8F0418CE7002003
:10128000D6E70000C80900202DE9F04704464FF0DA
:10129000FF380026C568D4E90497A80718D020466F
:1012A000FFF736FF384603F077F8002800DA4646A5
:1012B000280502D5484609F028FD4C212046FFF7B5
:1012C00077FE206D20F0010020653046BDE8F087F4
:1012D0004046FBE710B50446AFF300802046BDE86A
:1012E0001040FFF700B810B500F086F8BDE81040D8
:1012F00000F07CB82DE9F041044616460D464769DA
:10130000007B80072ED0384603F028F950BB3EB34F
:10131000012E02D0022E25D104E0204600F0CBF8A9
:1013200005441DE0384603F0F9F8E168002841F073
:101330001001E16005DA2046FFF7AAFE0120BDE8B2
:10134000F081C9030BD56268E16A914200D8114669
:10135000A26911442269891A814200DD08460544C8
:10136000002D01DA0220EAE7E16A6068E268814262
:1013700006D29103E06203D522F4003141F010025D
:10138000A6690027AE4213DCE16A814201D90B460F
:1013900000E0034603EB060C2369ACEB030CAC4501
:1013A00006DD814201D98C4600E084469C4505D18A
:1013B000A760276042F02000A5620DE0AD1BE66942
:1013C000AE1B8142A66000D90846C01A281A2060C8
:1013D0005819606022F0200003490840E0600020B6
:1013E00084F84870ABE70000BFCFD7FF002801D0DA
:1013F00002F0F2BF7047000010B5014602A000F0F5
:101400007BF8012010BD0000534947525452454417
:101410003A2052656469726563743A2063616E278D
:1014200074206F70656E3A2000000000032A40F2BD
:10143000308010F0030C00F0158011F8013BBCF176
:10144000020F624498BF11F801CB00F8013B38BF8E
:1014500011F8013BA2F1040298BF00F801CB38BF9C
:1014600000F8013B11F0030300F05F80083AC0F080
:10147000088051F8043B083A51F804CBA0E8081062
:10148000F5E7121D5CBF51F8043B40F8043BAFF395
:101490000080D20724BF11F8013B11F801CB48BFEF
:1014A00011F8012B24BF00F8013B00F801CB48BF25
:1014B00000F8012B704710B50146C268900703D0B1
:1014C000900607D5886A0AE0FFF79CFA01210160BF
:1014D000881E10BD8B69486818440B69C01A91F8C2
:1014E00048301BB191F84910401A10BD1103FCD5CA
:1014F0000028FADD401E10BD70B505460C460A20D6
:1015000000E06D1C03F0A5FB35B128780028F8D168
:1015100002E0641C03F09DFB14B120780028F8D190
:10152000BDE870400A2003F094BB10B5203AC0F02B
:101530000B80B1E81850A0E81850B1E81850A0E8A6
:101540001850203ABFF4F5AF5FEA027C24BFB1E83F
:101550001850A0E8185044BF18C918C0BDE8104082
:101560005FEA827C24BF51F8043B40F8043B08BF8B
:101570007047D20728BF31F8023B48BF11F8012B52
:1015800028BF20F8023B48BF00F8012B704702F04B
:10159000FF0343EA032242EA0242FFF72CBB02F0B8
:1015A000FF0343EA032242EA0242FFF703BD0000C1
:1015B0002DE9F04786B04AF20005002704264FF6D1
:1015C000AC7846F2895AC4F20A05C4F20A07C4F29A
:1015D0000006C0F61138C0F2010AFEF78BFE7068F3
:1015E00040F2314940F000707060504644F674415A
:1015F000C1F200194246C8470120286004F0D4FD1A
:101600004FF08040016841F001010160386820F42A
:1016100070403860386840F470403860D7F8000394
:1016200020F00800C7F80003386820F47020386004
:10163000386840F470203860D7F8000320F01000BC
:10164000C7F80003286A40F4702040F022002862A6
:1016500004F0AAFD04F0A8FD286C4FF6006120F00C
:1016600002002864686CCFF6E04108406864686C4A
:1016700040F4403040F04B006864286C20F00400D7
:10168000286400BFE86C0028FCD0286C40F2C80435
:1016900040F001002864012030604FF08040016874
:1016A000C2F2000421F01C010160016841F0040154
:1016B0000160016821F002010160016821F001016F
:1016C00001600168C9070DD10068C0F382000428D9
:1016D00000F28F82DFE800F003271F2212004FF490
:1016E000FA402BE02868800745F60020C0F262200F
:1016F0005CBF42F60050C0F2311026E042F60050C6
:10170000C0F2311020602968890718D545F60020FD
:10171000C0F2622012E04FF400400FE041F60030CA
:10172000C0F2B7000AE0286C80074BF26720C0F6D1
:10173000E6605CBF4DF28010C0F6F00020604FF014
:1017400080410968890701D5C00820604DF6836192
:10175000C4F21B31A0FB0112910C40F60062C0F2F2
:10176000277240F20C03C2F200039042196003D9C1
:10177000504644F6744123E04BF20041C0F2C441AC
:10178000884204D9AAF5924043F66B5118E045F619
:101790000021C0F26221884204D94DF2493042F65C
:1017A0004A110DE04CF28031C0F2C911884287BF66
:1017B00048F6492041F2A94148F6491040F6A17186
:1017C0004246C847D7F8800244F6D35120F00200C1
:1017D000C7F88002D7F88001C1F2620120F00C0046
:1017E000C7F88001F06E20F00600F066F06E40F061
:1017F0000200F0662068A0FB01014FF0FF3000EB13
:1018000091120021B1EB126F4EF21000CEF20000E7
:1018100009D142604EF62352CEF20002E02313704B
:1018200081600721016044F20042C2F200020168B7
:1018300007320025C2F2010522F0070441F004013D
:10184000AC42016006D3ECA00FF2C43140F20B327F
:101850002BF008FC2B1B42F2B4254BF2E266C2F2DD
:101860000005C0F203062846314622462CF06AFEE7
:1018700040F69834C2F200044FF0010820460321DC
:101880003246C5F86C802DF0D1FA04F11400C4E999
:1018900005004FF6FF700025A08304F12400C4E981
:1018A0000850A06242F24420C2F20000DFA14FF0D3
:1018B00000424FF40003A57784F809802CF042FE23
:1018C00040F65034C2F200041920207504F11C00C7
:1018D0001421FFF76DFB43F62560C0F2000043F6CC
:1018E0006961206343F6E550C0F20001C0F20000D8
:1018F000C4E90D104BF6F410C0F20300C4E9105017
:10190000CCA1204603222BF084FED7F8800042F2BF
:10191000903220F00F00C7F88000D7F880004FF613
:10192000311640F00100C7F88000D7F88003C2F2FA
:10193000000240F00100C7F88003D7F88000C0F231
:10194000020620F0F000C7F88000D7F880000821D8
:1019500040F01000C7F88000D7F8800340F6A013CD
:1019600020F00200C7F880034FF6D907C0F2020743
:1019700097624FF23B77D6624FF6AD26C0F2010177
:10198000C0F20207C0F20206C2F200034BF61C20AE
:1019900011654FF4E13117634FF6C13756634FF2CB
:1019A000FD76C0F20300D1641968C0F20207C0F2EC
:1019B000020613609064101D157615625562C2E927
:1019C0000E76536440F203122BF023FE28B19AA046
:1019D0009EA140F267122BF045FB40F64836C2F25A
:1019E00000064AF6B9303568C0F203002DF0BCF9A4
:1019F00058B10446A84208D015B128462BF07EFC09
:101A0000204643212BF0EEFC34604BF6B4244BF619
:101A1000B020C0F20304C0F20300A04209D24BF68A
:101A2000B025C0F2030500BF55F8040B8047A5425E
:101A3000FAD32EF043F940F68C50C2F2000042F285
:101A4000C80142F2CC07C0E90000C2F20001002048
:101A5000C2F20007088000BF391839500830B0F5CD
:101A6000807F4960F8D142F2CC18C2F20008002011
:101A700049F67521C8F80000142678A0C0F20201CA
:101A80004FF400620A2300962EF0C8FA28B975A018
:101A900078A1D8222BF0E6FA00202EF02AFC40F69E
:101AA000545040F65C54C2F20000C2F20004C0E997
:101AB000000075A2204602212DF0B8F90020CFF6D3
:101AC000FF70E061207A04F1140500F07F00022825
:101AD0004FF001006561A561607208D04BF2924041
:101AE000C0F203006AA140F2FD222BF0BBFA2EF0F7
:101AF00056F9A18B0646022912D36069A8420FD07D
:101B00002846FF212EF05CF90028F9D10120E0835E
:101B10002BF030FE3046FEF7F1FB2DF00DFC06E019
:101B20000120E0832BF026FE3046FEF7E7FB042081
:101B30004FF4007140F69854CDE90010C2F2000451
:101B40004BF2877144F6354240F630630A26C0F204
:101B500003012046C0F20002C2F2000302962EF0FA
:101B600095FA20462EF0C5FB04AC4BF2D21220466B
:101B7000C0F20302082100232EF004F941F244359B
:101B80001F204FF48071C2F200054CF63D6241F215
:101B9000E0332026CDE900102846C0F2000221469D
:101BA000C2F2000302962EF071FA28462EF0A1FB35
:101BB000D8F8000030B190FAA0F0B0FA80F0401CE4
:101BC000013801E04FF0FF3057F8304040F64C311B
:101BD000A4F12C00C2F2000108602DF003FB0320E9
:101BE0002072A4F11800FEF7FCFB002006B0BDE84F
:101BF000F0872068A3E500BF656E645F616C69676C
:101C00006E203E20626567696E5F616C69676E0079
:101C100072745F73797374656D5F686561705F6915
:101C20006E69745F67656E65726963007364726183
:101C30006D00000070696E00726573756C74203DF4
:101C40003D2052545F454F4B0000000073776D5F9D
:101C5000756172745F696E69740000006D61696E10
:101C60000000000074696420213D2052545F4E55ED
:101C70004C4C000072745F6170706C6963617469D0
:101C80006F6E5F696E6974007374696D65720000D0
:101C900072745F73656D5F636F6E74726F6C00005A
:101CA0004EF68850CEF20000016841F470010160E8
:101CB0007047000010B542F24004C2F2000400BFB9
:101CC00054E8000F013044E800010029F8D1002059
:101CD000C4F2040033F09CFA54E8000F013844E8E1
:101CE00000010029F8D110BD10B542F24004C2F243
:101CF000000400BF54E8000F013044E8000100294F
:101D0000F8D140F60000C4F2040033F081FA00BFBD
:101D100054E8000F013844E800010029F8D110BD53
:101D200010B542F24004C2F2000400BF54E8000FB4
:101D3000013044E800010029F8D141F20000C4F26A
:101D4000040033F065FA00BF54E8000F013844E89E
:101D500000010029F8D110BD10B542F24004C2F2D2
:101D6000000400BF54E8000F013044E800010029DE
:101D7000F8D141F60000C4F2040033F049FA00BF84
:101D800054E8000F013844E800010029F8D110BDE3
:101D900010B542F24004C2F2000400BF54E8000F44
:101DA000013044E800010029F8D141F20000C4F2FA
:101DB0000A0033F02DFA00BF54E8000F013844E860
:101DC00000010029F8D110BD10B542F24004C2F262
:101DD000000400BF54E8000F013044E8000100296E
:101DE000F8D14FF0402033F013FA00BF54E8000F51
:101DF000013844E800010029F8D110BD10B542F2C5
:101E00004004C2F2000400BF54E8000F013044E86F
:101E100000010029F8D144F60000C4F2000033F0BC
:101E2000F7F900BF54E8000F013844E80001002929
:101E3000F8D110BD70B540F2FF74C4F2040440F252
:101E4000000C40F2080EA042C4F20A0CC4F2000ECC
:101E500015DD41F2FF74C4F20404A0421EDC40F61A
:101E60000004C4F20404A0422ED041F20004C4F2E3
:101E70000404A04238D10CF1200C04242FE0B0F16E
:101E8000402F1DD044F60004C4F20004A04223D029
:101E90000024C4F20404A04210D025E041F600045E
:101EA000C4F20404A04213D041F20004C4F20A04B4
:101EB000A04219D10EF1040E0CF1400C01240EE0E9
:101EC0000CF1800C10240AE00CF1100C022406E046
:101ED0000CF1300C082402E00CF1900C2024DEF808
:101EE00000502C43CEF800406FF01F0505EB810534
:101EF000644608292CBF04348D004FF00F0E26686D
:101F00000EFA05F5AE4326602668012A26604FF0DA
:101F10000106DCF8005306FA01F145EA0106CCF8A7
:101F20000063426814BF8A430A4342600498DCF8A5
:101F30000021012B14BF8A430A43CCF80021012859
:101F4000DCF80002059A14BF88430843CCF800026D
:101F5000DCF80004012A14BF88430843CCF80004CD
:101F600070BD000070B504460068A268012190476A
:101F7000206910B342F2D415C2F2000555E8006F93
:101F800045E800600028F9D112E000BF55E8000FD5
:101F900045E800010029F9D1E169801B884284BF2E
:101FA0006FF0740070BDD4E9051001304008884717
:101FB0002068216988470028E8D0D4E9051001305D
:101FC00040088847002070BDB0B50C21C4F2000164
:101FD0000A684AF6000542F400520A60C4F2040599
:101FE0000721C5F8F413296821F46C612960817810
:101FF00002788B0290F801C0C47843EA821200791B
:102000002B68022942EA030242EA40224FF6FF739C
:102010002A602A6842F020022A602A6A3FFA82F285
:102020002A622A6A42EA0C6242EA04222A622A6886
:1020300022F020022A606A6822EA03026A6040F203
:102040000C02C2F2000212684CF6CD43CCF6CC432F
:102050006C68A2FB032344EAD30242F47F426A6025
:1020600018BF012826D1352000F026F8800748BF88
:10207000B0BD352000F020F80446052000F01CF823
:10208000296840EA042021F00F012960296841F203
:102090002602114340F40070296001216962E86161
:1020A0006961BFF34F8FBFF36F8F00BF686908B1DD
:1020B00000BFFBE7B0BD00004AF60001C4F2040116
:1020C0000A6822F00F020A600A6842F021020A60E0
:1020D000486201204861BFF34F8FBFF36F8F00BF8D
:1020E000486908B100BFFBE7C869C0B2704700008B
:1020F0002DE9F04142F24005C2F2000555E8000F1B
:10210000013045E800010029F8D12BF0C7FF38B9AC
:102110004AF68C30C0F203002FA17A222AF0A2FFE7
:1021200042F2D416C2F2000656E8000F013046E82B
:1021300000010029F8D140F64C38C2F20008D8F866
:102140000070FEF7D7F8F96B0446481E38BF002030
:10215000F8630CD8B86BD8F80010F86397F834001F
:1021600040F0080087F8340009B12DF0E5F820466A
:10217000FEF7C4F82BF092FF40B94AF68C30C0F25B
:1021800003001AA140F2EE222AF06CFF40F65451EF
:10219000C2F20001086888420ED0406956E8001F6C
:1021A00046E80012002AF9D1884205D840F65C5072
:1021B000C2F200002DF0CAF940F68C50C2F20000C5
:1021C00002F086FC55E8000F013845E800010029BF
:1021D000F8D1BDE8F08100BF72745F7469636B5F12
:1021E000696E6372656173650000000072745F74EC
:1021F000696D65725F636865636B0000B0B542F23C
:102200004004C2F2000400BF54E8000F013044E86B
:1022100000010029F8D142F29030C2F20000456C72
:102220006868816849025CBF81685FEA81210DD5D9
:102230004168090703D501202BF0ECFD686881682F
:10224000890203D5C16941F40051C16154E8000F0E
:10225000013844E800010029F8D1B0BDC16809B1D6
:10226000006808477047C16809B1006808477047AF
:1022700010B50446006801211EF0F8F8616909B143
:1022800020688847A16919B12068BDE81040084757
:1022900010BD10B5C9B20329044603D0206801213E
:1022A0001EF0E4F8616909B120688847A16919B195
:1022B0002068BDE81040084710BD2DE9F04381B00B
:1022C0000C46B0F90070B1F900108F423BDBB0F959
:1022D0000260B4F902108E4235DBB0F90490B4F913
:1022E000041089452FDCB0F90680B4F9060080455A
:1022F00029DC15465AB3694620462A46ADF80070D7
:10230000ADF8026000F025F8E8B1694620462A469B
:10231000ADF80090ADF8026000F01BF898B1694686
:1023200020462A46ADF80070ADF8028000F011F8A2
:1023300048B1694620462A46ADF80090ADF80280C3
:1023400000F007F800E0002001B0BDE8F0830120B4
:10235000FAE72DE9F041B1F90030B0F90040A342AD
:102360000DDBB0F904E0734509DCB1F902C0B0F946
:1023700002108C4503DBB0F90650AC4502DD0020AD
:10238000BDE8F081012A55DBAEEB040001306F1A85
:102390001FFA80F80137BEB200EBD83007EBD63613
:1023A00007B230B27E10B6EB600F4FEA6000B8BFE4
:1023B00078109042A8BF1046021917B2421816B200
:1023C000BB42D8BFB44517DD2A1A12B2BB422CDC7F
:1023D00094452ADB391809B26044091B01EBD1711D
:1023E00004EB61074E1002EB6101DB1B401A13FB8B
:1023F00003F106FB06F210E0384400B2001B00EBCC
:10240000D07004EB6007421001EB6000D91BACEB0D
:10241000000011FB01F102FB02F210FB0011002091
:10242000914298BF0120BDE8F081AEEB000424B2D8
:10243000A34202DA0120BDE8F081944516DAB445E2
:10244000F8DC201A02B2AEEB020202EBD27200EB11
:10245000620001EB6201181A10FB00F05710ACEBA0
:10246000010107FB07F211FB0101D8E7211A0CB2A9
:102470006044AEEB040707EBD77701EB670102EB93
:102480006702591A7E10801A11FB01F1B1E70000B2
:102490002DE9F04F95B042F2D412C2F2000200BF13
:1024A00052E8004F42E800410029F9D100210C9187
:1024B00041F2D401C2F20001002818BF00F10C0162
:1024C000096841F2D8090869C2F20009C9F8001088
:1024D00022F0ACFCD9F80010486918B122F0A6FC33
:1024E000D9F80010C86922F0A1FCD9F80000006AF0
:1024F00022F09CFCD9F80080D8F81000002800F0E9
:10250000F281B8F850010494002800F0958008F199
:102510003000059008F5987006900022012000BF59
:10252000002800F083800698805C002840F07E80C0
:102530000598002600EBC207B24271D008EB0605F1
:1025400095F8300100286BD108EBC603B7F90000FD
:10255000B3F93410884263DCB7F90400B3F93010E2
:1025600088425DDBB7F90200B3F93610884257DCC8
:10257000B7F90600B3F93210884251DBB3F9309055
:10258000B3F934C0B7F900A0B7F90200B7F90610E3
:10259000B3F932E0B3F93640ACEB0903B7F904B054
:1025A000CA450B934B460991CDF820A0B8BF5346BE
:1025B0007045A4EB0E0107900A91B8BF8646E3452B
:1025C000C8BFDC465946DDF824B0ACEB0309A3458F
:1025D000C8BF5C46A4EB0E0A09F101090AF101002B
:1025E00000FB09F90898091A07980131ABEB0000C4
:1025F000013000FB01FA0B98411C0A98013000FBE6
:1026000001A0814541F2D809C2F2000908D2012097
:102610003B80A7F802E0A7F804C0FC8085F83001F1
:10262000B8F8500101368642FFF486AFB8F8500181
:1026300001328242FFF474AFD8F8000040F6C41AA9
:10264000017CC2F2000AC90700F03781C068406807
:10265000002800F03281D8F85C0120B9D8F8600178
:10266000002800F02A81D8F800000222C1680F6813
:102670008B68BB4208BF4F68016942EA111101F043
:102680000301032908BF0230B0F90000202108909F
:102690000DA8CDE90973FEF78BFCB8F850010028AE
:1026A00000F0E7804FF0000B08EB0B0090F83001D2
:1026B000002840F0D780D8F85CA1BAF1000F00F0F4
:1026C000D18000BFD9F80000BAF90030D0F8581115
:1026D00000EBCB020AEB0106B2F934105746D6F8EC
:1026E00004A08B4200F3B48002F13004B7F9042057
:1026F000B4F90060B242C0F2AB80B7F902E0B4F9BD
:102700000680C64500F3A480B7F906C0B4F902906C
:10271000CC45C0F29D809E4203DCF145D8BF8A4281
:102720000EDDA9EB0E0424B2012C0CDB0125ADF863
:102730003430ADF836E0ADF83820ADF83A9003E02B
:10274000C44577DDEDE700250EEB0804ACEB04048F
:10275000744424B2012CA8BFC4450DDD0DAC04EBBC
:10276000C5040B940DAC24F835300B9C0135A4F84E
:102770000280A280A4F806C0F145C8BFCE46E0455D
:10278000B8BFC446ACEB0E0424B2012C0FDBF41A24
:1027900024B2012C0BDB0DF1340808EBC50428F83A
:1027A00035300135A4F802E0A680A4F806C05C1814
:1027B000141B23441BB2012B0BDB0DAB03EBC50039
:1027C00023F835100135A0F802E08280A0F806C099
:1027D00001E0012D2EDB41F2D8080DACC2F2000859
:1027E000D8F80000D0F85C1100F5AC76B94207D0FB
:1027F000316811F1080007D02BF08AFC316807E03E
:10280000304600F035FD0BE040F6C410C2F2000087
:102810007A580AB1531858604318425078505F6094
:1028200061682268013D04F1080441600260D7D16B
:10283000D8F8000000F5AC70394600F038FD40F6DD
:10284000C410C2F2000087421CBF38462AF0B2FF13
:1028500041F2D809BAF1000FC2F200097FF432AF99
:10286000D9F80080B8F850010BF1010B8345FFF453
:102870001BAFD8F85C6140F6C41AC2F2000AB6B1C8
:102880000DF1200B9BE83008D8F800005946C06BCA
:102890002246876B3346CDE900540296B847D9F8F3
:1028A0000080D8F8580130444668002EECD108F575
:1028B000AC7000F0AFFCD9F80080B8F8500141F6D8
:1028C000E0760027C2F200060028376000F0F781AA
:1028D00001280CDB08EB000191F82F11441E0029A0
:1028E0002046F5D104E00020A8F85001B3E200240E
:1028F000D8F80000416B21B18847D9F80080D8F89A
:102900000000C068816921F001018161D8F80000F0
:10291000C068816921F002018161B8F8501198F80E
:102920002800002940F0040188F8281000F0BE813A
:102930004FF0020A0DAF4FF0000B0B9408EB0B00A9
:1029400090F83001002840F02B81A34506D1D8F83B
:102950000000C068816941F001018161D8F8000080
:10296000C068816921F002018161D8F8003008EB6C
:10297000CB01D868DD6B806801F1300828601869E8
:1029800082074AEA101000F0030035D0032808BF80
:102990000233D9F800001988024638B941F2D4024E
:1029A000C2F200021268002A00F002811268136964
:1029B0004AEA131303F00303032B14BF528812884F
:1029C0000139013A00230D93ADF83810ADF83A20E3
:1029D0006F600068D0E903018269890759BF816986
:1029E00062F3410142F00201B84681612846C5F810
:1029F000088029F039FABFE0032818BF0233B8F97C
:102A00000610B3F90060B8F80420B8F80070B8F800
:102A10000200D9F80030B14201DA8A4615E01E46BC
:102A20003BB941F2D406C2F200063668002E00F02F
:102A3000C180366834694AEA141404F00304032C94
:102A400014BF76883688A6F1010A1B68D21BDF689E
:102A50000132091AFF6812B20131B7FBF2F20CB26F
:102A60009969A242B8BF144601B3002026460D90D2
:102A7000ADF83800771ED9F80000ADF83A7000685C
:102A80000DA982699047BDF93A10BDF83600081AC1
:102A9000013000B2844202DA3EB2002EEADC30B2EB
:102AA00000240028B8F80200C8BF4C1C04FA80F7C4
:102AB0000FFA8AF9791E494502DD002630E000BF91
:102AC000B8F800200EB2ADF83420B8F80420ADF804
:102AD000360041F2D800C2F20000ADF838200DAA4D
:102AE0000068ADF83A106A60AA600068B145C06835
:102AF0001FFA8AF281682960BCBFADF83AA0564639
:102B0000B1B28A4203D1816941F002018161284654
:102B100029F0AAF9384604FA87F7791E4945CFDD2E
:102B2000B1B21FFA8AF241F2D8098A42C2F2000910
:102B30000DAF1AD0B8F80010ADF83410B8F8041082
:102B4000ADF83600D9F80000ADF83810ADF83AA06D
:102B50006F60AF600068C06881682960816941F07A
:102B600002018161284629F07FF941F6E0760B9C4D
:102B7000C2F200064FF0020AD9F8008008EBCB0041
:102B8000B0F93010B0F93220B0F93430B0F9360075
:102B9000591A801A32680131013000FB012030607F
:102BA000B8F850010BF1010B8345FFF4C7AE03E009
:102BB000002205E7002646E798F8281040F6C41AD8
:102BC00001F0FB010028C2F2000A4FF0000788F86C
:102BD000281074D0D8F80000017CC90739D0C0682B
:102BE0004068B0B340F6C41B00243025C2F2000B8D
:102BF000002600BF08EB060090F8300110BBD8F8A3
:102C0000581111F1080004D02BF082FAD8F85811AD
:102C100000E0584642185460D8F8602142500AB18A
:102C200011444860D8F85C11C8F8600109B9C8F8C7
:102C30005C01D9F8008008EB0501496858F80520C7
:102C400041600260B8F850010136864205F108057E
:102C5000D0D308F130004FF480711CF029FBD9F873
:102C60000000202100F598701CF022FBD9F800002C
:102C700042F2D4120021C2F20002A0F8501100BFAB
:102C800052E8000F42E800010029F9D1049941F609
:102C9000E076401A0C90D9F80000C2F200060068F5
:102CA000436A63B10C993268984708E000F0FB0072
:102CB00040F6C41A88F82800C2F2000A002741F240
:102CC0001854C2F20004002554F8350060B1504594
:102CD00018BF2AF06FFD04EBC50044F83570817908
:102CE000878001F0FE0181710135102DECD140F695
:102CF000DC350024C2F20005285918B1504518BF30
:102D00002AF058FD28191C211CF0D2FA1C34702C12
:102D1000F2D141F6C875C2F200056C69002C46D1AB
:102D200041F2D400C2F200000068002814BF016A1A
:102D3000002149F2B430C0F203001DF0B7FD044693
:102D40001DF04EFE204621217F2221F0F3FB20467C
:102D50002021002221F0EEFB204655214FF6FF7284
:102D600021F0E8FB20461021032221F0E3FB20465E
:102D70001121032221F0DEFB20461221032221F043
:102D8000D9FB20461321032221F0D4FB20465B21EE
:102D9000032221F0CFFB4AF65371C0F20301204613
:102DA0001BF0EDFC204606211DF009FC6C61286833
:102DB00042F2D413C2F2000353E8001F43E80012AA
:102DC000002AF9D1081AB0F5967F0DD2306841F289
:102DD000893188423FD30C98D5E901120844511C2F
:102DE000C5E9010137E000BF53E8000F43E80001E7
:102DF0000029F9D1D9F800102860496800290FBFCF
:102E0000C82208684FF47A71B1FBF0F2A968104645
:102E100049B168684FF47A7301FB03F1012898BF48
:102E20000120B1FBF0F0D5E9033700216960A9600A
:102E300041F24031C2F20001904238BF0246B81858
:102E400009782861581CE860C1F16400C3B203A18D
:102E500020461BF0F7FC15B0BDE8F08F2575204625
:102E600050530A2575252520435055002DE9F04F74
:102E700085B00E9E1D4683463BB9B6F5807F04D1D2
:102E80000139013A0020002767E0DDF83C8000238B
:102E9000019301A8ADF80810CDF80A30ADF80E2066
:102EA000ADF81010ADF81220294632464346071DF2
:102EB00000F1080900F10C0A22F0BBF83846294657
:102EC0003246434622F0B5F8484629463246434644
:102ED00022F0AFF8504629463246434622F0A9F880
:102EE000BDF90410BDF90870BDF90C60BDF91040C2
:102EF000B9423846BDF906C0BDF90A30B8BF084628
:102F0000A6422546B8BF3546A842B8BF0546B942D5
:102F1000C8BF0F46A642C8BF3446A742C8BF3C46FA
:102F2000A11CBDF90E60BDF912409C451A46A5F1E1
:102F30000200B8BF6246A6422546B8BF3546AA423F
:102F4000B8BF15469C45C8BF6346A642C8BF3446B5
:102F5000AF1EA342C8BF1C46A21CABF80000ABF8D2
:102F60000270ABF80410ABF8062005B0BDE8F08F96
:102F70002DE9F04381B0C56A002D00F04881044678
:102F800090F8400010F00F0100F0418141F2E04064
:102F9000C2F2000006682A7F30685206407E5CBF9D
:102FA0000022E261AA682AB1127EC2F38108C2F34C
:102FB000011903E04FF000084FF00009032922D067
:102FC0000C2940F0D780E18B0022B9F1000FA283D9
:102FD00039D000294FF0000C00F08280326848F2AE
:102FE0001F53527E0027C2F16402C5F2EB1300BFEB
:102FF00012FB01F00F4450FB03F0411101EBD071C3
:103000000804F5D16DE0A18B0022B8F1000FE28336
:103010003FD000294FF0000C00F08680326848F263
:103020001F53527E0027C2F16402C5F2EB1300BFAA
:1030300012FB01F00F4450FB03F0411101EBD07182
:103040000804F5D171E009B2C0F1640000FB01F0A1
:1030500048F21F51C5F2EB1150FB01F0410901EBA1
:10306000D070E08328461EF0DDFDA96803460029E4
:103070001ABF488A40420020B4F91E1002B20C2741
:103080002846009706F0D0FB0246E0832846002140
:1030900024E009B2C0F1640000FB01F048F21F51C6
:1030A000C5F2EB1150FB01F0410901EBD070A08398
:1030B00028461EF04FFE074628461EF0BBFEB4F918
:1030C0001C1003464FF0030C28463A46CDF800C0CA
:1030D00006F0AAFB0146A08328460022002347E011
:1030E0000027B4F91A00B4F9361000FA87F2B4F9DF
:1030F0003A308A42A1EB0001BCBF00FA81F20F46D0
:103100009A42C8BF1F1A3BB24EF20101CFF6FF71BF
:10311000284641F6FF72A4F81EC006F02BFD384485
:1031200002B22846002122E00027B4F91800B4F9C1
:10313000341000FA87F2B4F938308A42A1EB00016A
:10314000BCBF00FA81F20F469A42C8BF1F1A3BB2B9
:103150004EF20101CFF6FF71284641F6FF72A4F846
:103160001CC006F071FC384401B22846002201233D
:1031700020F0ADFFA08B002849D1E08B002846D17C
:10318000B9F1000F19D1A86800281ABF408A474238
:10319000002728461EF046FD39B2002901DC01282F
:1031A0000BDB002903D4B0F1FF3F06DC47423AB203
:1031B00028460021012320F08AFFB8F1000F16D124
:1031C00028461EF0C7FD074628461EF033FE002F96
:1031D00001DC01280BDB002F03D4B0F1FF3F06DC3C
:1031E000474239B228460022012320F070FF2846CA
:1031F0000A21324617F062FD6078800707D494F800
:10320000400000F0F00084F840000020E06201B0CF
:10321000BDE8F083D0B1F0B581B04568044695B102
:1032200040F6C416C2F200062068294628444768C2
:10323000204600F03CF8B5421CBF28462AF0BAFAF6
:10324000002F3D46F0D101B0BDE8F04070470028A6
:1032500014BF406800207047006808444068704709
:10326000006808587047002814BF80680020704725
:1032700010B50168044611F1080004D02AF048FF97
:1032800098B1216803E040F6C410C2F200000022A9
:103290004250626843185A6002B15050A1686060A1
:1032A000002918BF10BDA06010BD002010BD98B14E
:1032B00042688A4211D00268836851F802C08B428A
:1032C00013D088184068BCF1000F1CBF0CEB020142
:1032D000486008B140F802C070470268114449686C
:1032E000416061B10020885070470021BCF1000F9F
:1032F000C0F808C018BF0CEB020041607047002105
:103300008160704770B50E4611431AD015460446C9
:103310001DF066F9A0680123018A428A31440182C6
:1033200051194182204631462A461FF0A1FF20460E
:103330000B210022002517F0C1FC18B120461FF018
:1033400081FE0125284670BDF0B581B01446A8B1B4
:10335000622206460F461FF02DFA78B10546006836
:1033600060B13046394663221FF024FA010605D0C9
:103370002B68A1B2C2B22846984700E02046C0EAB6
:10338000040001B0F0BD4FF6FF71884204BF1F205A
:10339000704708B900207047702804D847F64F31AD
:1033A000C0F203010FE040F63451C2F20001096897
:1033B0000029EFD040F638527138C2F2000280B2D4
:1033C00012688242E6D9085C70470000C8B170B547
:1033D00004460D46FDF738FA06462046294625F0F4
:1033E000CFFC05462044012125F0CAFC311A8D424C
:1033F00005D82044425D625501358D42FAD9BDE8B9
:10340000704070472DE9F04F93B0E0B100294FF0C4
:10341000000400F02B8107460078002800F0268188
:1034200098461C9B13F0060F13D0791C012242F220
:10343000014300BF0D2803D802FA00F71F4204D150
:10344000085D0134F6E7002410E1002818BF0134BC
:103450000CE191460022B8F1010F1092C0F20181F7
:10346000B0FA80F04609D8070F90002001914FF084
:10347000000A0DF1480B3D460C90CDE90279284633
:103480005946CDF848A025F0BDFC129AF1071192DB
:1034900002D00021129AC7E019FA88F10D95049123
:1034A00000210B914FF0FF31CDE908840E910021EE
:1034B00000254FF0000B4FF0000A044607460A951E
:1034C000DDF830900D9D05910797CDF818B000BF3D
:1034D000284611A9D84627465646934625F092FC21
:1034E00004460F980AF1010AE8B1232F5FFA89F028
:1034F00006D178B102281DD14FF000090CE000BFC1
:10350000012814D14FF00109202F08BF4FF0020904
:1035100002E000BF4FF0010915F80B10119A0029C5
:103520001292D5D150E0DDE90568079F05E0CDF89E
:10353000309002E0232700200C9001983946224663
:1035400017F0F0FD0A9D01B205440029DDF80C904A
:10355000C8BF4D4428B2049981424146A8BF4FF0EC
:10356000FF310E9B5A1C08BF0B460E930A2F41A336
:1035700018BF0D2F1ED0A7F59C4145F2A61291420F
:1035800018D300215A5C974214D001310729F9D190
:103590000E99274601310B9908BF0146DDE9112B31
:1035A0000D980B91129210F80B10002951467FF4E0
:1035B00086AF0EE0B8F1000F04BF0E9911F10101C2
:1035C00015D0C346B24604E0CDF83090DDF80C903B
:1035D00027460E9A501C11D0099C029FDDF82080CE
:1035E0000B994FF0000A0DF1480BECB13EE03B4661
:1035F000029FDDF820800022014606E03B46029F44
:10360000DDF820800B995A4656464FF0000A0DF11E
:10361000480B36B10D2B06D10A2C099C08BF129A13
:1036200002E0099C36E7099CD2B1387814440A2894
:10363000109418BF0D2813D0385D0D2818BF0A2824
:103640000CD068B1A8EB01000FFA80F83D19B8F171
:10365000010F4FF00006BFF612AF01E001341094E5
:1036600024B910A9384625F0CDFB109C204613B094
:10367000BDE8F08F202C2E3B3A2D5F0058B32DE98A
:10368000F04381B014461AB3064620468846FDF73B
:10369000DBF8E8B105463046FDF7D6F8074600EB03
:1036A00005093046414625F06BFB4119894507D392
:1036B000721900BFF35DD355013FEB198B42F9D26C
:1036C000304400BF14F8011B013D00F8011BF9D183
:1036D00001B0BDE8F0437047F0B581B042F2B425C7
:1036E0000446C2F20005284621462AF08FFD40BB61
:1036F00040F2CC010020C2F2000100BF0A5C072AA0
:103700000ED01830B0F5847FF8D14BF21C00C0F217
:1037100003000DA140F2153229F0A4FC002600E0C0
:103720000E1856F8047F00BFB74209D0A7F10C006D
:10373000A84203D021462AF069FD10B93F68F3E79B
:10374000002001B0F0BD00BF5F6D656D6865617000
:103750005F616C6C6F6300002DE9F04F81B00E4625
:1037600048B104466EB154F8148CB8F1000F0DD076
:1037700008F1080023E0304601B0BDE8F04FFFF744
:10378000ABBF20462AF0F6FD00241CE14BF2E260BC
:103790004BF2A911C0F20300C0F2030140F2711212
:1037A00029F060FC4BF2B8004BF27F41C0F20300FD
:1037B000C0F203014FF40F7229F054FC0820007886
:1037C000A4F1180A00F07F0007280BD04BF2A2608A
:1037D0004BF2A911C0F20300C0F203014FF4B97219
:1037E00029F040FC54F8105CF01D20F00707A5EB11
:1037F0000A09102F98BF1027A9F1180BBB4552D208
:10380000D8F86C00002800F0A780554508D84BF286
:10381000A91170A0C0F203014FF4CE7229F022FC6E
:103820002868C00740F08280A868A9EB0501084419
:10383000303807F11001884278D908F11803ABEB52
:1038400007000ECB0244881A9842C8F81C2088BF93
:10385000C8F82000686929694861286969690861B0
:10386000E868A968C860A868E968886041F6A0614E
:10387000E019C1F6A061E151C0F80480C0F80CA0C5
:1038800054F8101C8160D8F82820C860116944F8E9
:10389000100C01614261D8F86C304861002B106156
:1038A00040F091803DE007F12800584580F08B8082
:1038B000D8F86C00002857D00AEB070141F6A06247
:1038C00001F11800C1F6A062C1E90785E25154F880
:1038D000102C44F8100C0B6AC1F824A0D0601F789B
:1038E000D8F81C20FF070AD1D3E904769D681A4452
:1038F000521B18322B46E8600D627E613761D8F8A2
:103900002870D8F86C503E69002DC1E90A677061D3
:103910003861A2EB00001844A0F11800C8F81C00A0
:1039200051D108F144002BF011FE4CE0D8F86C00A6
:1039300018B908F144002BF009FE404639462AF038
:1039400065FC40B321465A4607462AF011FC204642
:103950002AF010FD3C4636E008F144002BF048FE0A
:1039600038B954F8105C50E708F144002BF040FEE1
:1039700068B305462AF092FB28B140F64430C2F203
:103980000000056007E040F64C30C2F2000000681D
:103990000028F2D085623046FFF79EFE00283FF4F3
:1039A000F3AE054654F8100C2146A0EB0A00183877
:1039B000B04238BF0646284632462AF0D9FB204698
:1039C0002AF0D8FC2C46204601B0BDE8F08F54F810
:1039D000105C71E76E6578745F707472203E2068C9
:1039E00065616465725F70747200000070B50228D2
:1039F00003DCBDE8704000F079B90E4649684BF22F
:103A00004A6300256E22C0F2030300BF4C5DA24250
:103A100006D15A1901355278032DF7D1CC780022FE
:103A2000A2420DD1B0682BF0A1FAB168B0F1FF3F0E
:103A300040F300810246AAA0BDE870402AF040BBD6
:103A40004BF2334300256D22C0F203034C5DA242CA
:103A500006D15A1901355278042DF7D10C7900227C
:103A6000A2420BD10328C4D0B568284626F0F6F947
:103A7000002841D02846FCF731FE44E04BF24F23AA
:103A800000257222C0F203034C5DA24206D15A19EE
:103A900001355278042DF7D10C790022A2420AD1C7
:103AA000B568284626F0DAF9002855D02846FCF7F4
:103AB00015FE054657E04BF2865300257722C0F2EB
:103AC000030300BF4C5DA24206D15A19013552785A
:103AD000052DF7D14C790022A2427FF48AAF03284A
:103AE0003FF487AFB568284626F0B8F900286FD0B4
:103AF0002846FCF7F3FD71E028462BF037FAB0F1C9
:103B0000FF3F40F39680F1684BF6321300256F2299
:103B1000C0F203034E5DB24206D15A190135527804
:103B2000062DF7D18E790022B24201D100219CE00E
:103B30004BF62C1300256922C0F203034E5DB242FE
:103B400006D15A1901355278052DF7D14E79002248
:103B5000B24215D1012188E028462BF007FA05462C
:103B6000B0F1FF3F65DD28462BF06AFAC0B20128AC
:103B70000CBF57A052A02946BDE870402AF0A0BA59
:103B80004BF2037300256922C0F203034E5DB2427B
:103B900006D15A19013552780C2DF7D10E7B00222F
:103BA000B24201D1022160E04BF29063002569220C
:103BB000C0F203034E5DB24206D15A190135527864
:103BC0000E2DF7D18E7B0022B2423AD103214CE078
:103BD00028462BF0CBF9B0F1FF3F2ADDF1684BF21C
:103BE000EF5300256822C0F2030300BF4E5DB242CE
:103BF00006D15A1901355278042DF7D10E790022D9
:103C0000B24211D04BF28D6300256F22C0F2030344
:103C10004E5DB24206D15A1901355278022DF7D1C4
:103C20008E780022B24224D10121BDE870402BF0F1
:103C300027BAB1684AF20830C0F203002AF040FA0D
:103C4000D7E64BF2A12300256F22C0F203034E5D9D
:103C5000B24206D15A1901355278092DF7D14E7A60
:103C60000022B2427FF4C5AE0421BDE870402BF0C3
:103C7000C5B94BF6651300256C22C0F203034E5DF7
:103C8000B24206D15A1901355278032DF7D1CE78B8
:103C90000022B24212D04BF2955300256F22C0F29F
:103CA00003034E5DB24206D15A1901355278032DF5
:103CB000F7D1CE780022B2427FF49BAE0021B4E768
:103CC00070696E5B25645D203D206C6F770A000093
:103CD00070696E5B25645D203D20686967680A0035
:103CE0002573203A2025640A0000000080B54AF2BE
:103CF000A240C0F203002AF0E3F94AF22C70C0F2AD
:103D000003002AF0DDF94AF22760C0F203002AF02E
:103D1000D7F94AF69A00C0F203002AF0D1F94AF224
:103D2000FD60C0F203002AF0CBF90DA02AF0C8F91B
:103D30004AF25D70C0F203002AF0C2F912A02AF024
:103D4000BFF91DA02AF0BCF923A02AF0B9F94AF660
:103D5000EF20C0F20300BDE880402BF007B900BFA0
:103D6000202020202020202020202020202020650E
:103D70002E672E204D5348203E70696E207265617B
:103D800064204750494F0A00202020202020202076
:103D900020202020202020652E672E204D534820F3
:103DA0003E70696E207772697465204750494F20D4
:103DB000686967680A000000202020202068656C80
:103DC000703A2020202020746869732068656C7028
:103DD000206C6973740A00004750494F20652E67B4
:103DE0002E3A0000B0B50446154638B94BF20D0026
:103DF000C0F2030007A1372229F034F93DB1606C0D
:103E0000296803682A79204698470020B0BD6FF0E2
:103E1000FE00B0BD5F70696E5F636F6E74726F6C31
:103E20000000000070B51E460546144638B94BF236
:103E30000D00C0F2030009A1162229F013F94FF07A
:103E400000004CB1082E18BF70BD686C21688268F4
:103E5000284690472071082070BD00BF5F70696ED2
:103E60005F7265616400000070B51E460446154629
:103E700038B94BF20D00C0F2030009A1262229F047
:103E8000F1F84FF000004DB1082E18BF70BD606C06
:103E9000296843682A7920469847082070BD00BFEA
:103EA0005F70696E5F777269746500002DE9F04795
:103EB0000E46054639B337782FB30C2014462AF046
:103EC00027F940B382462246CAE900523088032FC0
:103ED000AAF80800B0788AF80A0020D0012F12D181
:103EE00041F2D400C2F200000068002650B300681E
:103EF0000222016942EA111101F00301032914BFF2
:103F0000078847881FE0B078318841EA0041284699
:103F1000BDE8F0471047B07831882246F5E741F216
:103F2000D400C2F2000000680025D8B30068022265
:103F3000016942EA111101F00301032914BF478806
:103F4000078830E0002741F23805C2F20005284614
:103F50004421FDF72DF8012085F84200DAF8001021
:103F6000C5F818A00A68C97F2A6000294EF6994151
:103F70003AB2C0F2000118BF5242E9614FF4FA713F
:103F8000E962A5F8400047F2697044F62161C0F289
:103F90000300C0F20001C5E90822AE62686028464D
:103FA000E96044E0002741F23806C2F200063046DC
:103FB0004421FCF7FDFF4FF0010986F842904EF6D0
:103FC0001B50DAF80010C0F20000F0610868C97FE9
:103FD0004FF4FA780522C6F82C80A6F84090C6F86F
:103FE00018A03060002908BF3AB24FF0000308BFA4
:103FF0000F23C6E90822B362002908BF0A250B2156
:104000002A4620F097FA4EF69940C0F20000F0617F
:1040100047F26F7044F62161C0F20300C0F2000164
:10402000C6F82C80A6F8409070603046F160BDE87C
:10403000F0470AF09DBE2DE9F0470E46054639B31C
:1040400037782FB30C2014462AF062F840B382462A
:104050002246CAE900523088032FAAF80800B07837
:104060008AF80A0020D0012F12D141F2D400C2F206
:1040700000000068002650B300680222016942EA8D
:10408000111101F00301032914BF078847881FE0BD
:10409000B078318841EA00412846BDE8F047104732
:1040A000B07831882246F5E741F2D400C2F2000030
:1040B00000680025D0B300680222016942EA1111AC
:1040C00001F00301032914BF478807882FE0002768
:1040D00041F29005C2F2000528464421FCF768FF32
:1040E000012085F84200DAF80010C5F818A00A6827
:1040F000C97F2A603AB2002908BF5242A5F84000A1
:1041000047F269704FF4FA71C0F20300C5E90A2161
:10411000686044F621604EF69941C0F20000C0F29A
:1041200000012E62E8602846E96142E0002741F282
:104130009006C2F2000630464421FCF739FF4FF0EA
:10414000010986F842904EF61B50DAF80010C0F2D2
:104150000000F0610868C97F4FF4FA783AB20B4664
:10416000C6F82C80A6F84090C6F818A03060002948
:1041700014BF0F230522C6E90833B262002908BF25
:104180000A250B212A4620F0D5F947F26F70C0F2BC
:104190000300706044F621604EF69941C0F20000C1
:1041A000C0F20001C6F82C80A6F84090F0603046BE
:1041B000F161BDE8F0470AF0DBBD00002DE9F047F2
:1041C000002800F094800446007840B141F2A757DF
:1041D000C2F200073878012809D857A07AE0617840
:1041E0000A2953D34AF25450C0F203005EE040F66D
:1041F000CC32C2F20002516859B11368002200BFEC
:104200001944496801320029FAD1110401D03DA0B6
:1042100060E041F29D59C2F20009484410F8010CD7
:1042200041F2A85AC2F2000A5AF820604FF0010881
:10423000316986F81F8009B13068884706F11C058E
:1042400042F271223046C0F200022946FFF7F3FE27
:104250003878013859FA80F1387011F8011C5AF891
:104260002160B168306886F81F8009B188473068DE
:1042700001211CF0FDFB42F267223046C0F2000231
:104280002946FFF713FE28A000210FE041F2A750B6
:10429000C2F20000007860B141F29D52C2F2000209
:1042A000104410F8010C884203D128A029F008FF1F
:1042B00012E040F6CC32C2F200025068C8B1136876
:1042C000002200BF1844406801320028FAD11004CF
:1042D0000FD023A029F0F4FE40F6C410C2F2000073
:1042E000844204D02046BDE8F04729F063BABDE817
:1042F000F087084620F01CFE6178024621A029F0D4
:10430000DFFEE9E7706D5F6261636B206275737950
:104310002028616E696D6174696F6E2072756E6EB2
:10432000696E67290A000000706D5F6261636B202F
:104330007265743D25640A006E6F2070726576693F
:104340006F757320706167650A000000616C7265AB
:10435000616479206F6E20706167652025640A00B2
:10436000706D5F6F70656E20627573792028616E65
:10437000696D6174696F6E2072756E6E696E672902
:104380000A000000706D5F6F70656E2025642072FA
:1043900065743D25640A000080B54AF69020C0F29D
:1043A000030029F08DFE4BF2A2704BF2F602C0F230
:1043B000030006A1C0F2030229F082FE4AF2F76070
:1043C000C0F2030029F07CFE002080BD5F7379738A
:1043D0005F636C6F73650000B0B540F64C31C2F29C
:1043E00000010C68002C61D0054631A029F068FE60
:1043F00034A021462A4629F063FE4AF2F760C0F253
:10440000030029F05DFE207A00F07F01012909D028
:104410004BF2FD10C0F203002FA140F2173228F03A
:1044200021FE207A41B2B1F1FF3F1DDD012838D0D5
:104430004BF2FD104BF25551C0F20300C0F20301E4
:104440004FF4107228F00EFE94F90800B0F1FF3F0F
:1044500027DC4AF665704BF25551C0F20300C0F2FA
:10446000030140F241221AE000F07F00012818D039
:104470004BF2FD104BF2B151C0F20300C0F2030148
:104480004FF4ED7228F0EEFD94F90800002808D4EE
:104490004BF2B15115A0C0F2030140F2DB1228F03B
:1044A000E1FD204600F0F4F82AF046FFFEE700BFE9
:1044B0001B5B33336D5B572F7374646C69625D20D3
:1044C000000000007468726561643A2573206578A5
:1044D00069743A256421000072745F7468726561C2
:1044E000645F636F6E74726F6C00000072745F6F54
:1044F000626A6563745F69735F73797374656D6F06
:10450000626A656374282872745F6F626A65637497
:104510005F742974687265616429000080B54AF689
:104520009020C0F2030029F0CBFD4BF2A2704BF2B9
:10453000F602C0F2030006A1C0F2030229F0C0FD9A
:104540004AF2F760C0F2030029F0BAFD002080BDF6
:104550005F7379735F666C656E000000002103284D
:1045600038BF01210846704710B547F64221C0F216
:1045700003010446FCF700FA48B347F64821C0F2AD
:1045800003012046FCF7F8F918B347F63B21C0F2C7
:1045900003012046FCF7F0F9E8B14AF69020C0F29A
:1045A000030029F08DFD4BF2A2704BF2F602C0F22F
:1045B00003000AA1C0F2030229F082FD4AF2F7606B
:1045C000C0F2030029F07CFD4FF0FF3010BD002049
:1045D00010BD012010BD022010BD00BF5F737973B4
:1045E0005F6F70656E00000080B54AF69020C0F2E3
:1045F000030029F065FD4BF2A2704BF2F602C0F207
:10460000030006A1C0F2030229F05AFD4AF2F76046
:10461000C0F2030029F054FD002080BD5F73797360
:104620005F7365656B00000080B51346421E012A6A
:104630000BD840F64830C2F200000068E8B10A46E4
:104640004FF0FF3129F032F817E0C0B14AF6902060
:10465000C0F2030029F034FD4BF2A2704BF2F602D7
:10466000C0F2030007A1C0F2030229F029FD4AF2BB
:10467000F760C0F2030029F023FD002080BD4FF059
:10468000FF3080BD5F7379735F7772697465000076
:1046900010B50446FBF72EFE42F2C801C2F200013B
:1046A0000A8801320A80FBF729FE20462BF018FC0D
:1046B000204600F007F820462BF0D1FCBDE8104062
:1046C00029F058B82DE9F04104462BF068FBD4F8E6
:1046D00080700546002F00F09480387A00F07F004B
:1046E000032840F08E8040F64C30C2F20000006893
:1046F00098B94BF23F264AF66300C0F20306C0F2B7
:104700000300314629F0DCFC4AF6BD30C0F203005C
:10471000314640F23D4228F0A5FC29F0BFFC98B19B
:104720004BF23F264AF2B540C0F20306C0F2030046
:10473000314629F0C5FC4AF6BD30C0F203003146CF
:1047400040F23D4228F08EFCFBF7D4FD42F2C80156
:10475000C2F200010A8801320A80FBF7CFFDD4F8CB
:104760008000B84208D04BF23F2131A0C0F20301D3
:1047700040F2434228F076FCFBF7BCFD214651F89D
:104780002C2F8046386A4B6853601A600960496074
:1047900038B190F8401094F84020891A18BF0121D0
:1047A00000E001213B4653F8142F9A4214BF127DBA
:1047B000FF227A77E9B9024652F8783F12F8377C3F
:1047C00093420FD013F8081C13F8076CFFB28E4207
:1047D00038BF31461B688F4238BF394693420F4677
:1047E000F0D100E0394690F84020914218BF00F027
:1047F00029F94046FBF782FD28F0BCFF0020C4F8F1
:10480000800054F8781FA1420AD001260F68A1F158
:10481000240001F8066C29F03DFFA7423946F5D186
:1048200028F0A8FF2846BDE8F041FBF767BD00BFB0
:104830007468726561642D3E70656E64696E675F51
:104840006F626A656374203D3D20266D75746578DE
:104850002D3E706172656E742E706172656E7400AB
:1048600010B540F64C30C2F200000468FBF742FD80
:1048700042F2C801C2F200010A8801320A80FBF745
:104880003DFD20462BF02CFB2046FFF71BFF20466A
:104890002BF0E5FB28F06EFFBDE810402AF04CBD80
:1048A000B0B5DDE904EC0446002084F8340004F1DE
:1048B0002C056064C4E90610C4E9082310462321CE
:1048C0001A46C4E90B5584F841E084F840E0C4E995
:1048D0000ECC29F0B5FED4E90801D4E906C36FF087
:1048E0004F05084420F007014BF6EF60A1F150029C
:1048F000CDF6AD6048510435FCD100254FF08070F5
:1049000041E9083544F66103C0F2000341E902C001
:104910006FF0430041E9065541E9045341E9145061
:1049200004F1780041E912556261C4E91D50C4E9FF
:104930001F0504F148000A21224684F88850A56228
:10494000C4F88450C4F894502AF070FA082084F80F
:10495000510004F15C0044F66D1104F16002E06561
:10496000C0F2000133C22567B0BD0000B0B50446F7
:1049700010B104F1080017E04AF6C2704BF61C11A2
:10498000C0F20300C0F203019A2228F06BFB4BF245
:10499000B8004BF27F41C0F20300C0F203014FF4B4
:1049A0000F7228F05FFB0820007800F07F000128DC
:1049B0000AD04BF2FD104BF61C11C0F20300C0F2FE
:1049C00003019B2228F04EFBFBF794FC94F8341073
:1049D0000546490707D44BF61C1110A0C0F203018D
:1049E000A32228F03FFB224652F82C3F6FF07400C0
:1049F000216BA062204659600B60226312602AF08E
:104A000097FB40F64C30C2F20000006808B12AF073
:104A100093FC2846BDE8B040FBF770BC72745F732E
:104A2000636865645F7468726561645F69735F730E
:104A3000757370656E646564287468726561642955
:104A40000000000070B504462AF008FC94F8340019
:104A500040073CD5D4F88060CEB3307A00F07F00B8
:104A6000032834D1214651F82C2F206B06F1140570
:104A700050600260727A21630960284621462BF05B
:104A8000D7F97069A84214BF007DFF20346A70779F
:104A9000204650F8782F94F84130824210D000BF61
:104AA00012F8081C12F8076CDBB28E4238BF314690
:104AB00012688B4238BF194682420B46F0D100E0A3
:104AC000194694F84000814201D02046BCE770BDF1
:104AD0002DE9F04383B004462BF061F942F2D4167D
:104AE0000546C2F2000600BF56E8000F46E8000186
:104AF0000029F9D127680DF10409A742CDF80890E3
:104B0000CDF8049047D04FF6FE78C7F6FF7800BF87
:104B100056E8000F46E800010029F9D17969401AEA
:104B2000404538D8D7E9002117F80B0C51600A60CE
:104B300081073F605CBF00F0FC0007F80B0C019898
:104B4000476038600197C7F8049028F013FE2846A4
:104B5000FBF7D4FBD7E9021088472BF020F9019925
:104B60000546494514D0D7E900104860016017F8A0
:104B70000B0C3F6000F0030103297F6008D100F0B7
:104B8000FE00A7F1140107F80B0C204600F00CF80A
:104B90002768A742BCD128F0EDFD2846FBF7AEFB05
:104BA00003B0BDE8F0830000B0B58C465CF8142F6C
:104BB000DCF8043053601A601CF80B2C42F2D4135A
:104BC00002F0FE02C2F20003CCF800C0CCF804C030
:104BD0000CF80B2C53E8002F43E80025002DF9D1E9
:104BE0004B6A4FF6FE7403EB020E4268C7F6FF7481
:104BF000C1F828E0904208D0034600684569B5EB4B
:104C00000E05F7D0A542F5D801E01068134640F62E
:104C10009452C2F200021568C0F804C04861487A94
:104C2000013540F001001560C3F800C08B61487287
:104C3000B0BD000040F6545440F65C55C2F200048A
:104C4000C2F200052046FFF743FF28462AF0D0FCB9
:104C5000F8E7C1B24BF29110C0F2030029F030BA6C
:104C60002DE9F04F81B041F2F440C2F2000000683B
:104C700042F2D417C2F2000757E8001F47E80012BB
:104C8000002AF9D141F2350940F6CC34C2F20009CC
:104C9000C2F2000499F80020656882F00102002D3C
:104CA00089F8002000F0AE8041F23408A1EB000A40
:104CB000C2F200084FF0000B95F8420099F800107E
:104CC000C0F3800288F800B08A4267D000F0FB028F
:104CD00042EA8102296B030785F842201BD4002990
:104CE00019DC11EB0A0216D4C00709D1696939B180
:104CF00028468847296AAA6A014410442962A862A2
:104D0000A96809B12846884795F84200296B40F008
:104D1000080085F8420011EB0A0028633ED4E96AD6
:104D20008842C8BF2963E969284688476A6A904271
:104D300005D06A68014668620AB128689047D5E9DB
:104D40000B0181422ADB95F84210B5F840308A0702
:104D500007D433B14FF6FF76B3421CBF013BA5F831
:104D600040301B0408D0D5E90E36C6F100062E638C
:104D7000A3B1002A04D506E0002A1BD4AB6BCBB14B
:104D80006A6B52422A6381F0020185F84210A96AD7
:104D90002A6A2962C5E90A23A86300BF98F80000BF
:104DA00021680028204608BF68184568002D7FF458
:104DB00083AF27E020462946FEF779FA40F6D8313E
:104DC000C2F20001096860680A7DB0FA80F040090B
:104DD00002F0FE0210440875E968012088F800001E
:104DE00009B128468847296909B12846884740F60D
:104DF000C410C2F200008542D0D0284628F0DAFC68
:104E0000CCE700BF57E8000F47E800010029F9D1BF
:104E100041F2F441C2F20001086001B0BDE8F08F38
:104E200010B504468069817A0289D0E9000342EA1C
:104E300001419847A069BDE8104028F0BBBCB0B55F
:104E4000044640680D4610B12946FFF7F8FF226876
:104E500022B120462946BDE8B0401047B0BD89B216
:104E60000AF01EBC89B20AF054BCB0B592B0044638
:104E7000808F40B301AD284644211AF019FA9DF8FD
:104E80004610012041F00101ADF844008DF84610B4
:104E90004BF661610B904EF66150C0F20201C0F218
:104EA00000000291A18F08904BF66360C0F20200EF
:104EB0000C910021049028460194CDE9091109F0D4
:104EC00057FF12B0B0BD204612B0BDE8B04026F08A
:104ED0006BBFB0B582B041F2E041C2F200010D6893
:104EE00004467DB12868007840F00200032809D10B
:104EF000286B38B1218F2046E18602B0BDE8B04072
:104F00001EF0A0B8606A007FC00720D1204614F0D0
:104F1000BAFF218FE08E81420AD02087019001AA3A
:104F200020461C2115F0CAFE78B120461EF08AF8F2
:104F30005DB128680078042807D1A0680021002806
:104F400014BF8068002016F0B9FA02B0B0BD204648
:104F500002B0BDE8B04015F07BBB0168002200291B
:104F600014BF48680020898E22F0D0BF2DE9F04F91
:104F70008DB00590C87806910390C0074FF2D571A7
:104F80004FF2BD70DDF86890C0F20001C0F2000081
:104F900007930992089008BF01460491D9F81010B0
:104FA0000FF2344700295DD0B9F80220B9F8043077
:104FB000D9F80C00A2EB030A00F1080200260B4608
:104FC000157AED0702D195882E4402E01588AAEBE8
:104FD000050A013B02F11402F2D100254FF000084E
:104FE0004FF0000B4219127CD20732D131040AD1A2
:104FF0004AF6BD30C0F2030039464FF4D87228F0AB
:1050000031F8D9F80C0031B20FFA8AF292FBF1F2C2
:105010004119CB68B1F9044002FB03F213B2B1F9B4
:1050200006209342B8BF1A46A242D8BF22469A42EF
:1050300007D0087C4FF0010B40F001000874D9F84C
:105040000C0041198B890A81D9F81010F61AAAEBC5
:10505000020A08F10108884505F11405C2D35FEA88
:10506000CB709FD103984FF2EB7110F001004FF21B
:10507000E170C0F20001C0F2000008BF01460291D9
:1050800008984FF2D571C0F2000108BF0846059D8F
:10509000089028460021162200241DF08BFBDDF825
:1050A00018A05FFA80F89AF80000B9F90220B9F95F
:1050B000083018990CAF0DF13206ADF83240ADF85A
:1050C0003040CDE9006726F04BFC9AF80300C0079A
:1050D0000AD0B8F1010F07D128461CF01AFDBDF81F
:1050E00032100844ADF83200A868DDF824B000287A
:1050F00000F06F814268BBF1FF3F594603DC12EBC1
:105100000B0100F16681914280F06381026852F8E0
:105110002140002C00F05D8107998B4500F05981FA
:105120000125C0F20605CDF80C8000BFE1692942D7
:105130000AD09AF80310490740F13781BBF1000FFC
:1051400000F33D8145E100BF40F62A30C2F2000085
:105150000288204600211DF02DFB0006CDF824B06A
:105160000DD0D9F8100040B1D9F80C100A68A2424D
:105170000AD0013801F11401F8D1002705E0608C54
:1051800020F4406060842DE00F899AF80310608C51
:10519000C9074FF4006120F4406008BF4FF48061FC
:1051A000084404F11406049960843046884780B2AC
:1051B000874217D020461DF045FFA16960690B9119
:1051C00039B2029A0A9030469047204629210AAA0D
:1051D00015F074FD60682221224615F06FFD20460F
:1051E0001DF030FF9AF80100012810D0022817D1D5
:1051F000B9F900000899013020F0010604F114000B
:105200008847301A00EBD0704FEA60080AE008992E
:10521000B9F8006004F114008847A6EB000801E02B
:105220004FF000089AF80300C0070BD0039801283C
:1052300008D1049904F114008847BDF83210081A07
:10524000ADF83200204600216B221DF0B3FA06466D
:10525000204600216C221DF0ADFA274637F814EFE6
:1052600006F4C041B1F5005FFB88B7F802C01AD15F
:1052700031B221F4C041B1F5FA6F14DCBE88B1F54A
:105280007A7FC8BFC1F57A71A6EB0E06013636B239
:1052900048F21F5201FB06F1C5F2EB1251FB02F17D
:1052A0004E1106EBD17600F4C041B1F5005F19D183
:1052B00001B221F4C041B1F5FA6F13DCA3EB0C008D
:1052C000013000B2B1F57A7FC8BFC1F57A7101FB38
:1052D00000F048F21F51C5F2EB1150FB01F04111F3
:1052E00001EBD070169A9AF803301644A6EB0E0222
:1052F000179ED346BDF832A0304413F00101554645
:10530000A0EB0C0008BF45462A44002908BFD04640
:10531000404442EA0006360420D00FFA80F82046C6
:1053200016B21DF08FFEA08A218B3044A08288190E
:10533000E18A208301EB0800618BE08201EB080029
:10534000608320461DF07EFE204631464246002303
:105350001DF08EFF9BF8033003F00101DDF824B04F
:1053600003980125C0F2060551B1012808D1BDF806
:10537000300019990844AAEB0000DDF818A00EE0EF
:10538000049938468847199ABDF830101044DDF862
:1053900018A00844BDF832109AF803300844059A62
:1053A0005907ADF8320006D4906841680BF1010B43
:1053B0008B4506DB0DE0BBF1010F0ADB9068ABF11A
:1053C000010B016851F82B401CB107998B457FF404
:1053D000ADAE0DB0BDE8F08F6368696C6472656E48
:1053E0005F7265706F73000080B502A028F068FEE0
:1053F000002080BD1B5B324A1B5B480010B582B0A9
:10540000022811D0012836D140F64C30C2F20000FB
:1054100001684AF2DC30C0F2030028F051FE02B00D
:10542000BDE8104027F04EBE48680C4601A9002296
:10543000FBF761F901996368994222D0024610B3E3
:10544000107A00F07F00012823D117A0114628F020
:1054500037FE4AF67720C0F2030028F031FE4BF207
:105460005C20C0F2030018A128F02AFE4AF2F7607F
:10547000C0F2030000E020A002B0BDE8104028F018
:105480001FBE18A00AE04AF21560C0F20300002116
:1054900004E04AF21560C0F20300114602B0BDE814
:1054A000104028F00DBE00BF6261636B74726163CF
:1054B00065202573283078256C78292C2066726F3A
:1054C0006D2025730A00000072745F68775F626167
:1054D000636B74726163655F6672616D655F67655A
:1054E00074000000496E76616C696420696E7075A5
:1054F000743A2025730A0000706C6561736520752D
:1055000073653A206261636B7472616365205B74DA
:1055100068726561645F616464726573735D0A00DB
:1055200080B509F057F9002080BD00002DE9F04F4B
:1055300093B040F2E0150228C2F200050ED12E68A9
:1055400066B14C6805F10C0757F8080C2146FBF7CB
:1055500013FA20B357F80C6B002EF5D14AF2FC4039
:10556000C0F2030028F0ACFD4AF26940C0F203002B
:1055700028F0A6FD286870B14AF61A040835C0F272
:10558000030400BF55E90112204628F099FD686820
:105590000C350028F6D1002013B0BDE8F08F701E46
:1055A0000928DBD8DFE800F0062609485817360539
:1055B0003968D3E709F0C2F9EDE740F2CC010020E9
:1055C000C2F200010A5C032A66D01830B0F5847F6D
:1055D000F8D1002061E040F2CC010020C2F20001CD
:1055E0000A5C062A00F0EA801830B0F5847FF7D113
:1055F0000020E4E040F2CC010020C2F2000100BF34
:105600000A5C022A00F05A811830B0F5847FF7D185
:10561000002054E109F0DEF8BDE740F2CC010020A3
:10562000C2F200010A5C092A00F0C8811830B0F506
:10563000847FF7D10020C2E140F2CC010020C2F209
:10564000000100BF0A5C042A00F01C821830B0F58B
:10565000847FF7D1002016E240F2CC010020C2F294
:10566000000100BF0A5C052A00F088821830B0F5FE
:10567000847FF7D1002082E240F2CC010020C2F208
:10568000000100BF0A5C0A2A00F000831830B0F560
:10569000847FF7D10020FAE2084404300E90032002
:1056A0008DF8400008201190002012904AF2D92075
:1056B0004BF6AC1306AEC0F203000821C0F20303A0
:1056C00008220F9628F0FCFC4AF625346FF00705F7
:1056D000C0F20304204628F0F3FC0135FAD34AF265
:1056E0009730C0F2030028F0EBFC0020082700BF31
:1056F0000EA909F035F8DDF848900590B9F1010FD1
:1057000058DB9DF840A04FF0000B00BF56F82B80EF
:105710002AF045FB18F8041C044601F07F0528F028
:1057200029F82046FAF7EAFD55453FD1A8F10C03C8
:1057300058F8082FD8F80C4098F8090098F80A1083
:1057400042451ED04FF0FF32454600BF2D68013262
:105750004545FBD1CDE902104AF6AB200492C0F2D8
:105760000300082108220097019428F0A9FC404674
:105770002AF090FB4AF62A10C0F2030028F0A0FCA1
:1057800014E04FF0FF3247463F6801324745FBD1F6
:10579000CDE902104AF2975008270492C0F20300A4
:1057A000082108220097019428F08AFC0BF1010BD4
:1057B000CB45ABD1059800289AD1ECE608440430DB
:1057C0000E9006208DF840000820119000204BF22A
:1057D0008C5306AE12900FF244600821C0F203030E
:1057E00008220F9628F06CFC4AF625346FF0070566
:1057F000C0F20304204628F063FC0135FAD34AF2D4
:105800004F30C0F2030028F05BFC4AF62A1B002050
:10581000C0F2030B0EA908F0A3FFDDF84880059045
:10582000B8F1010F46DB9DF840904FF0000A00BF31
:1058300056F82A502AF0B3FA15F8041C044601F071
:105840007F0727F097FF2046FAF758FD4F452DD1E7
:10585000A5F10C0355F8080F4FF0FF372C8AA8422A
:1058600015D0284600680137A842FBD14AF6FF60F0
:10587000C0F2030008210822CDE9004728F020FCEF
:1058800028462AF007FB584628F01AFC0EE0284666
:1058900000680137A842FBD14AF21D50C0F2030054
:1058A00008210822CDE9004728F00AFC0AF1010A84
:1058B000C245BDD105980028ACD16CE6084404303F
:1058C0000E9002208DF840000820119000201290C8
:1058D0004AF2D85006AEC0F203000FF2605308211E
:1058E00008220F9628F0ECFB4AF625346FF00705E6
:1058F000C0F20304204628F0E3FB0135FAD34AF254
:105900006630C0F2030028F0DBFB4AF62A1B0020B9
:10591000C0F2030B0EA908F023FFDDF848800590C4
:10592000B8F1010F46DB9DF840904FF0000A00BF30
:1059300056F82A502AF033FA15F8041C044601F0F0
:105940007F0727F017FF2046FAF7D8FC4F452DD1E7
:10595000A5F10C0355F8080F4FF0FF372C89A8422A
:1059600015D0284600680137A842FBD14AF61070CE
:10597000C0F2030008210822CDE9004728F0A0FB6F
:1059800028462AF087FA584628F09AFB0EE0284667
:1059900000680137A842FBD14AF22E50C0F2030042
:1059A00008210822CDE9004728F08AFB0AF1010A04
:1059B000C245BDD105980028ACD1ECE508440430BF
:1059C0000E9009208DF8400006A80F900820119035
:1059D00000204BF22C4312900FF2D8300821C0F275
:1059E0000303082228F06CFB4AF625346FF0070504
:1059F000C0F20304204628F063FB0135FAD30FF20E
:105A0000DC3028F05DFB00200FF2F43B0FF2F8359C
:105A10000EA908F0A5FE129E0590012E2EDB9DF822
:105A200040800DF1180900BFD9F800A02AF0B7F99D
:105A30001AF8041C074601F07F0427F09BFE384645
:105A4000FAF75CFC444515D19AF808005C461E281C
:105A50009EBF47F66071C0F2030151F820409AF8EA
:105A60000E70AAF10C03284608210822CDE9004750
:105A700028F026FB013E09F10409D5D1059800283C
:105A8000C6D188E5084404300E9004208DF840000B
:105A900008201190002012904AF2B5504BF6E60310
:105AA00006AEC0F203000821C0F2030308220F96DD
:105AB00028F006FB4AF625346FF00705C0F2030410
:105AC000204628F0FDFA0135FAD34AF2BF30C0F281
:105AD000030028F0F5FA4AF62A1B0020C0F2030B57
